{
  "contractName": "Power",
  "abi": [
    {
      "inputs": [],
      "payable": false,
      "stateMutability": "nonpayable",
      "type": "constructor"
    },
    {
      "constant": true,
      "inputs": [],
      "name": "getProduction",
      "outputs": [
        {
          "name": "",
          "type": "uint256"
        }
      ],
      "payable": false,
      "stateMutability": "view",
      "type": "function"
    },
    {
      "constant": true,
      "inputs": [],
      "name": "getCurrent_usage",
      "outputs": [
        {
          "name": "",
          "type": "uint256"
        }
      ],
      "payable": false,
      "stateMutability": "view",
      "type": "function"
    },
    {
      "constant": true,
      "inputs": [],
      "name": "getAverage_usage",
      "outputs": [
        {
          "name": "",
          "type": "uint256"
        }
      ],
      "payable": false,
      "stateMutability": "view",
      "type": "function"
    }
  ],
  "bytecode": "0x6060604052341561000f57600080fd5b6103e860008190555061061f6001819055506104d2600281905550610113806100396000396000f3006060604052600436106053576000357c0100000000000000000000000000000000000000000000000000000000900463ffffffff16806355a93bda146058578063653d41b214607e5780638e4dfebb1460a4575b600080fd5b3415606257600080fd5b606860ca565b6040518082815260200191505060405180910390f35b3415608857600080fd5b608e60d4565b6040518082815260200191505060405180910390f35b341560ae57600080fd5b60b460de565b6040518082815260200191505060405180910390f35b6000600254905090565b6000600154905090565b600080549050905600a165627a7a723058207d1402faccaf8c1f0a7928236eac864c4d5d0aec63837da94fe9387e56e413dd0029",
  "source": "pragma solidity ^0.4.18;\n\ncontract Power {\n\tuint production;\n\tuint current_usage;\n\tuint average_usage;\n\n\n\tfunction Power() public {\n\t\tproduction = 1000;\n\t\tcurrent_usage = 1567;\n\t\taverage_usage = 1234;\n\t}\n\n\tfunction getProduction() public view returns (uint) {\n\t\treturn production;\n\t}\n\tfunction getCurrent_usage() public view returns (uint) {\n\t\treturn current_usage;\n\t}\n\tfunction getAverage_usage() public view returns (uint) {\n\t\treturn average_usage;\n\t}\n}",
  "sourcePath": "/Users/chrisle/Documents/GitHub/smart-meter-client/contracts/Power.sol",
  "compiler": {
    "name": "solc",
    "version": "0.4.19+commit.c4cbbb05.Emscripten.clang"
  },
  "schemaVersion": "1.0.1",
  "updatedAt": "2018-02-20T09:06:19.651Z"
}