{
  "contractName": "Power",
  "abi": [
    {
      "inputs": [],
      "payable": false,
      "stateMutability": "nonpayable",
      "type": "constructor"
    },
    {
      "constant": true,
      "inputs": [],
      "name": "getProduction",
      "outputs": [
        {
          "name": "",
          "type": "uint256"
        }
      ],
      "payable": false,
      "stateMutability": "view",
      "type": "function"
    },
    {
      "constant": true,
      "inputs": [],
      "name": "getEfficiency",
      "outputs": [
        {
          "name": "",
          "type": "uint256"
        }
      ],
      "payable": false,
      "stateMutability": "view",
      "type": "function"
    },
    {
      "constant": true,
      "inputs": [],
      "name": "getCurrent_usage",
      "outputs": [
        {
          "name": "",
          "type": "uint256"
        }
      ],
      "payable": false,
      "stateMutability": "view",
      "type": "function"
    },
    {
      "constant": true,
      "inputs": [],
      "name": "getAverage_usage",
      "outputs": [
        {
          "name": "",
          "type": "uint256"
        }
      ],
      "payable": false,
      "stateMutability": "view",
      "type": "function"
    },
    {
      "constant": true,
      "inputs": [],
      "name": "getAmount_spent_this_month",
      "outputs": [
        {
          "name": "",
          "type": "uint256"
        }
      ],
      "payable": false,
      "stateMutability": "view",
      "type": "function"
    },
    {
      "constant": true,
      "inputs": [],
      "name": "getAmount_saved_this_month",
      "outputs": [
        {
          "name": "",
          "type": "uint256"
        }
      ],
      "payable": false,
      "stateMutability": "view",
      "type": "function"
    }
  ],
  "bytecode": "0x6060604052341561000f57600080fd5b6103e8600081905550601d60018190555061061f6002819055506104d260038190555061094e6004819055506101116005819055506101da806100536000396000f300606060405260043610610078576000357c0100000000000000000000000000000000000000000000000000000000900463ffffffff1680634607aef21461007d57806355a93bda146100a65780635d28bf76146100cf578063653d41b2146100f85780638e4dfebb14610121578063d301eee51461014a575b600080fd5b341561008857600080fd5b610090610173565b6040518082815260200191505060405180910390f35b34156100b157600080fd5b6100b961017d565b6040518082815260200191505060405180910390f35b34156100da57600080fd5b6100e2610187565b6040518082815260200191505060405180910390f35b341561010357600080fd5b61010b610191565b6040518082815260200191505060405180910390f35b341561012c57600080fd5b61013461019b565b6040518082815260200191505060405180910390f35b341561015557600080fd5b61015d6101a4565b6040518082815260200191505060405180910390f35b6000600454905090565b6000600354905090565b6000600154905090565b6000600254905090565b60008054905090565b60006005549050905600a165627a7a7230582019e6a2c095f5b68182550eb9d88b30a2aec0697b85c87adc99c2aa368d4c13ac0029",
  "source": "pragma solidity ^0.4.18;\n\ncontract Power {\n\tuint production;\n\tuint efficiency;\n\tuint current_usage;\n\tuint average_usage;\n\tuint amount_spent_this_month;\n\tuint amount_saved_this_month;\n\n\tfunction Power() public {\n\t\tproduction = 1000;\n\t\tefficiency = 29;\n\t\tcurrent_usage = 1567;\n\t\taverage_usage = 1234;\n\t\tamount_spent_this_month = 2382;\n\t\tamount_saved_this_month = 273;\n\t}\n\n\tfunction getProduction() public view returns (uint) {\n\t\treturn production;\n\t}\n\tfunction getEfficiency() public view returns (uint) {\n\t\treturn efficiency;\n\t}\n\tfunction getCurrent_usage() public view returns (uint) {\n\t\treturn current_usage;\n\t}\n\tfunction getAverage_usage() public view returns (uint) {\n\t\treturn average_usage;\n\t}\n\tfunction getAmount_spent_this_month() public view returns (uint) {\n\t\treturn amount_spent_this_month;\n\t}\n\tfunction getAmount_saved_this_month() public view returns (uint) {\n\t\treturn amount_saved_this_month;\n\t}\n}",
  "sourcePath": "/home/nat/Documents/Accenture/smart-meter-client/contracts/Power.sol",
  "compiler": {
    "name": "solc",
    "version": "0.4.19+commit.c4cbbb05.Emscripten.clang"
  },
  "schemaVersion": "1.0.1",
  "updatedAt": "2018-02-21T00:46:29.076Z"
}